{
  "_format": "hh-sol-artifact-1",
  "contractName": "Todo",
  "sourceName": "contracts/Todo.sol",
  "abi": [
    {
      "inputs": [
        {
          "internalType": "string",
          "name": "_text",
          "type": "string"
        }
      ],
      "name": "addTask",
      "outputs": [],
      "stateMutability": "nonpayable",
      "type": "function"
    },
    {
      "inputs": [],
      "name": "getTasks",
      "outputs": [
        {
          "components": [
            {
              "internalType": "string",
              "name": "text",
              "type": "string"
            },
            {
              "internalType": "bool",
              "name": "completed",
              "type": "bool"
            }
          ],
          "internalType": "struct Todo.Task[]",
          "name": "",
          "type": "tuple[]"
        }
      ],
      "stateMutability": "view",
      "type": "function"
    },
    {
      "inputs": [
        {
          "internalType": "uint256",
          "name": "_index",
          "type": "uint256"
        }
      ],
      "name": "toggleTask",
      "outputs": [],
      "stateMutability": "nonpayable",
      "type": "function"
    }
  ],
  "bytecode": "0x608060405234801561001057600080fd5b50610b8d806100206000396000f3fe608060405234801561001057600080fd5b50600436106100415760003560e01c806304a87e3814610046578063613137a4146100645780636723856214610080575b600080fd5b61004e61009c565b60405161005b91906105b6565b60405180910390f35b61007e60048036038101906100799190610622565b6101e4565b005b61009a60048036038101906100959190610784565b610352565b005b60606000803373ffffffffffffffffffffffffffffffffffffffff1673ffffffffffffffffffffffffffffffffffffffff168152602001908152602001600020805480602002602001604051908101604052809291908181526020016000905b828210156101db578382906000526020600020906002020160405180604001604052908160008201805461012f906107fc565b80601f016020809104026020016040519081016040528092919081815260200182805461015b906107fc565b80156101a85780601f1061017d576101008083540402835291602001916101a8565b820191906000526020600020905b81548152906001019060200180831161018b57829003601f168201915b505050505081526020016001820160009054906101000a900460ff161515151581525050815260200190600101906100fc565b50505050905090565b6000803373ffffffffffffffffffffffffffffffffffffffff1673ffffffffffffffffffffffffffffffffffffffff168152602001908152602001600020805490508110610267576040517f08c379a000000000000000000000000000000000000000000000000000000000815260040161025e9061088a565b60405180910390fd5b6000803373ffffffffffffffffffffffffffffffffffffffff1673ffffffffffffffffffffffffffffffffffffffff16815260200190815260200160002081815481106102b7576102b66108aa565b5b906000526020600020906002020160010160009054906101000a900460ff16156000803373ffffffffffffffffffffffffffffffffffffffff1673ffffffffffffffffffffffffffffffffffffffff1681526020019081526020016000208281548110610327576103266108aa565b5b906000526020600020906002020160010160006101000a81548160ff02191690831515021790555050565b6000803373ffffffffffffffffffffffffffffffffffffffff1673ffffffffffffffffffffffffffffffffffffffff168152602001908152602001600020604051806040016040528083815260200160001515815250908060018154018082558091505060019003906000526020600020906002020160009091909190915060008201518160000190816103e69190610a85565b5060208201518160010160006101000a81548160ff021916908315150217905550505050565b600081519050919050565b600082825260208201905092915050565b6000819050602082019050919050565b600081519050919050565b600082825260208201905092915050565b60005b83811015610472578082015181840152602081019050610457565b60008484015250505050565b6000601f19601f8301169050919050565b600061049a82610438565b6104a48185610443565b93506104b4818560208601610454565b6104bd8161047e565b840191505092915050565b60008115159050919050565b6104dd816104c8565b82525050565b60006040830160008301518482036000860152610500828261048f565b915050602083015161051560208601826104d4565b508091505092915050565b600061052c83836104e3565b905092915050565b6000602082019050919050565b600061054c8261040c565b6105568185610417565b93508360208202850161056885610428565b8060005b858110156105a457848403895281516105858582610520565b945061059083610534565b925060208a0199505060018101905061056c565b50829750879550505050505092915050565b600060208201905081810360008301526105d08184610541565b905092915050565b6000604051905090565b600080fd5b600080fd5b6000819050919050565b6105ff816105ec565b811461060a57600080fd5b50565b60008135905061061c816105f6565b92915050565b600060208284031215610638576106376105e2565b5b60006106468482850161060d565b91505092915050565b600080fd5b600080fd5b7f4e487b7100000000000000000000000000000000000000000000000000000000600052604160045260246000fd5b6106918261047e565b810181811067ffffffffffffffff821117156106b0576106af610659565b5b80604052505050565b60006106c36105d8565b90506106cf8282610688565b919050565b600067ffffffffffffffff8211156106ef576106ee610659565b5b6106f88261047e565b9050602081019050919050565b82818337600083830152505050565b6000610727610722846106d4565b6106b9565b90508281526020810184848401111561074357610742610654565b5b61074e848285610705565b509392505050565b600082601f83011261076b5761076a61064f565b5b813561077b848260208601610714565b91505092915050565b60006020828403121561079a576107996105e2565b5b600082013567ffffffffffffffff8111156107b8576107b76105e7565b5b6107c484828501610756565b91505092915050565b7f4e487b7100000000000000000000000000000000000000000000000000000000600052602260045260246000fd5b6000600282049050600182168061081457607f821691505b602082108103610827576108266107cd565b5b50919050565b600082825260208201905092915050565b7f496e76616c696420696e64657800000000000000000000000000000000000000600082015250565b6000610874600d8361082d565b915061087f8261083e565b602082019050919050565b600060208201905081810360008301526108a381610867565b9050919050565b7f4e487b7100000000000000000000000000000000000000000000000000000000600052603260045260246000fd5b60008190508160005260206000209050919050565b60006020601f8301049050919050565b600082821b905092915050565b60006008830261093b7fffffffffffffffffffffffffffffffffffffffffffffffffffffffffffffffff826108fe565b61094586836108fe565b95508019841693508086168417925050509392505050565b6000819050919050565b600061098261097d610978846105ec565b61095d565b6105ec565b9050919050565b6000819050919050565b61099c83610967565b6109b06109a882610989565b84845461090b565b825550505050565b600090565b6109c56109b8565b6109d0818484610993565b505050565b5b818110156109f4576109e96000826109bd565b6001810190506109d6565b5050565b601f821115610a3957610a0a816108d9565b610a13846108ee565b81016020851015610a22578190505b610a36610a2e856108ee565b8301826109d5565b50505b505050565b600082821c905092915050565b6000610a5c60001984600802610a3e565b1980831691505092915050565b6000610a758383610a4b565b9150826002028217905092915050565b610a8e82610438565b67ffffffffffffffff811115610aa757610aa6610659565b5b610ab182546107fc565b610abc8282856109f8565b600060209050601f831160018114610aef5760008415610add578287015190505b610ae78582610a69565b865550610b4f565b601f198416610afd866108d9565b60005b82811015610b2557848901518255600182019150602085019450602081019050610b00565b86831015610b425784890151610b3e601f891682610a4b565b8355505b6001600288020188555050505b50505050505056fea26469706673582212208b2bc33a09bc67d3b42855ffd424624f59f35e46ea60f9ca46279f6392a793ee64736f6c63430008180033",
  "linkReferences": {},
  "deployedLinkReferences": {}
}